:100000000C942A000C94F8000C941F010C944601E7
:100010000C943C000C943C000C94EF010C943C00BC
:100020000C943C000C943C000C94E5010C9492015F
:100030000C943C000C943C000C943C000C943C0050
:100040000C943C000C943C000C943C000C943C0040
:100050000C943C0011241FBECFE5D8E0DEBFCDBF1D
:1000600020E0A0E6B0E001C01D92A537B207E1F79D
:100070000E94D5000C9471020C94000040E060E0F6
:1000800080E00E947400089580E00E945E009C0160
:10009000A8E8B3E10E944E0220E038E240E050E0E0
:1000A0000E942C02822F08953E9A3F983D98309AE4
:1000B000319A329A359A379A369A089597B1907E46
:1000C00097B997B1892B87B9369A34990AC08FE7C7
:1000D00094E8AEE1B0E0349904C00197A109B109F8
:1000E000D1F784B195B108958130E9F030F08230D4
:1000F00081F1833009F443C008952AB381E090E090
:10010000062E02C0880F991F0A94E2F78095822379
:100110008ABB8AB350E002C0440F551F6A95E2F7CC
:10012000482B4ABB089527B381E090E0062E02C019
:10013000880F991F0A94E2F78095822387BB87B3C3
:1001400050E002C0440F551F6A95E2F7482B47BBA9
:10015000089524B381E090E0062E02C0880F991F15
:100160000A94E2F78095822384BB84B350E002C0F6
:10017000440F551F6A95E2F7482B44BB089521B3FD
:1001800081E090E0062E02C0880F991F0A94E2F7E2
:100190008095822381BB81B350E002C0440F551F7C
:1001A0006A95E2F7482B41BB08950E9454000E94D3
:1001B0003E0041E063E081E00E9474000E946D0116
:1001C0000E947A010E944400893120F480E00E945C
:1001D0008101F8CF97EE980F9B3020F482E30E94C4
:1001E0008101F0CF843270F380E50E948101EACF73
:1001F0001F920F920FB60F9211242F933F934F939C
:100200005F936F937F938F939F93AF93BF93EF937E
:10021000FF93E0917300F09174000995FF91EF91C5
:10022000BF91AF919F918F917F916F915F914F910E
:100230003F912F910F900FBE0F901F9018951F9216
:100240000F920FB60F9211242F933F934F935F930A
:100250006F937F938F939F93AF93BF93EF93FF938E
:10026000E0916F00F09170000995FF91EF91BF91BF
:10027000AF919F918F917F916F915F914F913F913E
:100280002F910F900FBE0F901F9018951F920F92F5
:100290000FB60F9211242F933F934F935F936F9359
:1002A0007F938F939F93AF93BF93EF93FF93E091CF
:1002B0007100F09172000995FF91EF91BF91AF919C
:1002C0009F918F917F916F915F914F913F912F916E
:1002D0000F900FBE0F901F90189583B7806483BF57
:1002E00083B7886083BF83B78F7C83BF83B7806207
:1002F00083BF089583B7887F83BF83B7836083BF3D
:100300000895982F80E064E670E00E941802615022
:100310007109CB01992324F488279927861B970B11
:100320008CBF08951F920F920FB60F9211242F9336
:100330003F934F935F936F937F938F939F93AF936D
:10034000BF93EF93FF938091600090916100A09123
:100350006200B09163000196A11DB11D8093600001
:1003600090936100A0936200B09363004091690094
:1003700050916A0060916B0070916C008417950732
:10038000A607B70721F480916800819582BFE091AC
:100390006400F09165000995109260001092610070
:1003A0001092620010926300FF91EF91BF91AF91A4
:1003B0009F918F917F916F915F914F913F912F917D
:1003C0000F900FBE0F901F9018951F920F920FB6AF
:1003D0000F9211240F900FBE0F901F9018951F922F
:1003E0000F920FB60F9211242F933F934F935F9369
:1003F0006F937F938F939F93AF93BF93EF93FF93ED
:10040000E0916D00F0916E00309709F00995FF9131
:10041000EF91BF91AF919F918F917F916F915F917C
:100420004F913F912F910F900FBE0F901F901895F5
:1004300097FB072E16F4009407D077FD09D00E9491
:100440005D0207FC05D03EF4909581959F4F08957D
:10045000709561957F4F0895A1E21A2EAA1BBB1BD0
:10046000FD010DC0AA1FBB1FEE1FFF1FA217B30780
:10047000E407F50720F0A21BB30BE40BF50B661F96
:10048000771F881F991F1A9469F76095709580955A
:1004900090959B01AC01BD01CF010895A29FB001D1
:1004A000B39FC001A39F700D811D1124911DB29FA8
:1004B000700D811D1124911D0895AA1BBB1B51E1D4
:1004C00007C0AA1FBB1FA617B70710F0A61BB70BC4
:1004D000881F991F5A95A9F780959095BC01CD0169
:0604E0000895F894FFCF1F
:00000001FF
